{
  "abi": [
    {
      "inputs": [],
      "name": "AlreadyCommitted",
      "type": "error"
    },
    {
      "inputs": [],
      "name": "AlreadyPaidWager",
      "type": "error"
    },
    {
      "inputs": [],
      "name": "AnswerDoesntMatch",
      "type": "error"
    },
    {
      "inputs": [],
      "name": "GameDoesntExist",
      "type": "error"
    },
    {
      "inputs": [],
      "name": "GameFull",
      "type": "error"
    },
    {
      "inputs": [],
      "name": "HostCannotWager",
      "type": "error"
    },
    {
      "inputs": [],
      "name": "MustBeHost",
      "type": "error"
    },
    {
      "inputs": [],
      "name": "MustWaitForCommits",
      "type": "error"
    },
    {
      "inputs": [],
      "name": "MustWaitForWagers",
      "type": "error"
    },
    {
      "inputs": [],
      "name": "NonParticipant",
      "type": "error"
    },
    {
      "inputs": [],
      "name": "NotEnoughValue",
      "type": "error"
    },
    {
      "inputs": [],
      "name": "TooMuchValue",
      "type": "error"
    },
    {
      "inputs": [
        {
          "internalType": "uint256",
          "name": "_gameID",
          "type": "uint256"
        },
        {
          "internalType": "bytes32",
          "name": "_commit",
          "type": "bytes32"
        }
      ],
      "name": "commit",
      "outputs": [],
      "stateMutability": "nonpayable",
      "type": "function"
    },
    {
      "inputs": [],
      "name": "createGame",
      "outputs": [
        {
          "internalType": "uint256",
          "name": "",
          "type": "uint256"
        }
      ],
      "stateMutability": "nonpayable",
      "type": "function"
    },
    {
      "inputs": [
        {
          "internalType": "uint256",
          "name": "_gameID",
          "type": "uint256"
        }
      ],
      "name": "payWager",
      "outputs": [],
      "stateMutability": "payable",
      "type": "function"
    },
    {
      "inputs": [
        {
          "internalType": "uint256",
          "name": "_gameID",
          "type": "uint256"
        },
        {
          "internalType": "uint256",
          "name": "_answer",
          "type": "uint256"
        }
      ],
      "name": "reveal",
      "outputs": [],
      "stateMutability": "nonpayable",
      "type": "function"
    }
  ],
  "bytecode": {
    "object": "0x60806040526000805534801561001457600080fd5b506106ae806100246000396000f3fe60806040526004361061003f5760003560e01c80637255d729146100445780638c398af51461006b5780639348cef714610080578063f2f03877146100a0575b600080fd5b34801561005057600080fd5b506100596100c0565b60405190815260200160405180910390f35b61007e6100793660046105d9565b6101a6565b005b34801561008c57600080fd5b5061007e61009b3660046105f2565b610357565b3480156100ac57600080fd5b5061007e6100bb3660046105f2565b610455565b6000805481806100cf8361062a565b909155506040805160c0810182523381528151808301835260008082526020808301829052808401928352838501829052606084018290526080840182905260a084018290528582526003905292909220815181546001600160a01b0319166001600160a01b039091161781559151909190610151906001830190600261056c565b50604082015160038201805460ff191660ff9283161790556060830151600483015560808301516005909201805460a09094015192821661ffff19909416939093176101009290911691909102179055919050565b60005481106101c85760405163366b224160e21b815260040160405180910390fd5b600081815260036020526040902080546001600160a01b0316330361020057604051631ce87fd360e31b815260040160405180910390fd5b600381015460ff166002036102285760405163b3ed896d60e01b815260040160405180910390fd5b600082815260026020908152604080832033845290915290205415610260576040516314d6e73160e01b815260040160405180910390fd5b3415806102705750806004015434105b1561028e57604051630717c22560e51b815260040160405180910390fd5b600381015460ff166000036102a8573460048201556102cd565b80600401543411156102cd5760405163e491d76960e01b815260040160405180910390fd5b60038101543390600183019060ff16600281106102ec576102ec610643565b0180546001600160a01b0319166001600160a01b03929092169190911790556000828152600260209081526040808320338452909152812034905560038201805460ff169161033a83610659565b91906101000a81548160ff021916908360ff160217905550505050565b600082815260036020526040902061036f8133610502565b61038f5760405160016204167d60e21b0319815260040160405180910390fd5b6005810154600360ff90911610156103ba5760405163754fc9d760e11b815260040160405180910390fd5b60008381526001602090815260408083203380855290835292819020548151928301939093528101849052606001604051602081830303815290604052805190602001201461041c576040516374640b6760e11b815260040160405180910390fd5b6000838152600160208181526040808420338552909152909120810183905560058201805490919061033a90610100900460ff16610659565b600082815260036020526040902061046d8133610502565b61048d5760405160016204167d60e21b0319815260040160405180910390fd5b6003810154600260ff90911610156104b85760405163370f61e560e01b815260040160405180910390fd5b604080518082018252838152600060208083018281528783526001808352858420338552909252938220925183559251919092015560058201805490919061033a9060ff16610659565b81546000906001600160a01b039081169083160361052257506001610566565b60018301546001600160a01b039081169083160361054257506001610566565b60028301546001600160a01b039081169083160361056257506001610566565b5060005b92915050565b82600281019282156105b4579160200282015b828111156105b457825182546001600160a01b0319166001600160a01b0390911617825560209092019160019091019061057f565b506105c09291506105c4565b5090565b5b808211156105c057600081556001016105c5565b6000602082840312156105eb57600080fd5b5035919050565b6000806040838503121561060557600080fd5b50508035926020909101359150565b634e487b7160e01b600052601160045260246000fd5b60006001820161063c5761063c610614565b5060010190565b634e487b7160e01b600052603260045260246000fd5b600060ff821660ff810361066f5761066f610614565b6001019291505056fea264697066735822122002b5fc3773cdb93b6de3e309bee7613aa6f43d6f027a44976bec7649f8ee8f3c64736f6c63430008110033",
    "linkReferences": {}
  },
  "methodIdentifiers": {
    "commit(uint256,bytes32)": "f2f03877",
    "createGame()": "7255d729",
    "payWager(uint256)": "8c398af5",
    "reveal(uint256,uint256)": "9348cef7"
  },
  "id": 0
}